:03000000020BC42C
:0C0BC400787FE4F6D8FD758153020C0B1D
:100F3300D3EF9400EE940040147D0A7C00ED1D7005
:0D0F4300011CED4C70F7EF1F70E61E80E3FF
:010F5000227E
:100EF3004B503A004B493A004B443A00722F6D690C
:100F03006E004F4C443A0053563A200050563A2054
:010F130000DD
:100ECD00020E0000020A0000020C014D010903C1CF
:010EDD000014
:100A690075900FE590540FF53F640F7003020B1C4E
:100A79007F037E00120F33E590540FF53F640F702A
:100A890003020B1C853F3E7590F07F017E00120F1B
:100A990033E59054F0F53FFFBF7025E53E24F9603A
:100AA9001A24FC601124FE6008147056753D1080EC
:100AB90051753D0F804C753D0E8047753D0D804247
:100AC900EF2490601B24C0601224E0600924F070B8
:100AD90012753D01800D753D028008753D03800347
:100AE900753D04E53E24F9601324FC600B24FE6087
:100AF9000314800E74038006740680027409253D70
:100B0900F53DE53F64F06008E59054F0F53F80F26B
:050B1900AF3D227F004A
:010B1E0022B4
:1009B1008F3D120FCAE53D24F4604924FE602E14D8
:1009C100601614705CE4F509F510751100751231AB
:1009D1007BFF7A0E79F38028750901751000751176
:1009E100007512357BFF7A0E79F7E48013750902E1
:1009F1007510007511007512397BFF7A0E79FBE4D1
:100A0100FDFF801A7509037BFF7A0E79FF7D08E4EB
:100A1100FF120D897BFF7A0E79FF7D087F01120D90
:100A210089E50964036032AB10AA11A9121204E12D
:100A31007545037B007A00791312072A7BFF7A0F31
:100A41007905E4FD7F01120D897B007A0079137D20
:100A5100057F01120D89E4F5087E007F117D007B81
:080A6100007A00791302051B65
:100E10007BFF7A0F790AE4FDFF120D897BFF7A0FC1
:100E2000790FE4FD7F01120D89850E40850F417B0E
:100E3000047D03E4FF120DCF850E40850F417B0436
:070E40007D037F01020DCFCD
:100F5100120A69EF24F4600F14600924FC50028026
:090F6100080209B1D20022C2000D
:010F6A002264
:0D0FBD007B007A0079137D04E4FF020D89AA
:100D2C00120A69EFD394004013EF940A500EEF248B
:100D3C0030FF74132508F8A607050822EF24F56088
:100D4C001814603314601E24FC50182407702D7482
:100D5C00132508F8763005082274132508F8762E2A
:100D6C0005082280147B007A00791312059FAB10C2
:0C0D7C00AA11A9121205017F0C1209B186
:010D88002248
:100FAC00E4FF120CC57C007D141204488E0E8F0FCA
:010FBC002212
:0E072A008B3E8A3F89408F448E438D428C4126
:10073800E4F546F547F54BF54AF549F548120368DF
:100748008E468F4785464C85474DE4F54F054FAE9D
:100758004CAF4D7C007D0A1204488E4C8F4DE54D00
:10076800454C70E985464C85474DF54EE54EC39599
:100778004F504FE54EC394145048AE4CAF4D7C00DB
:100788007D0A120448ED2430FFE54EFDAB3EE54FEF
:100798007583002540F9E583353FFAE924FFF9EA36
:1007A80034FFFAC3E99DF9EA9400FAEF120402AEA5
:1007B8004CAF4D7C007D0A1204488E4C8F4D054E7F
:1007C80080AAE5456005E54EB41403020899AB3EDE
:1007D800AA3FA940854E82758300742E120414AC7A
:1007E80046AD47E412032FA804A905AA06AB07AF34
:1007F80044AE43AD42AC411200118F4B8E4A8D4935
:100808008C48E54F04F54EE545254FFFE433CF24EA
:1008180001CF3400FEC3E54E9FEE6480F8748098E3
:10082800506FE54EC394145068AF4BAE4AAD49AC17
:1008380048E4FBFA792078411201068F4B8E4A8DE5
:10084800498C48120368EF2430AB3EAA3FA9408583
:100858004E82758300120414AF4BAE4AAD49AC48C2
:10086800C004C005C006C007120368AC07E4120341
:1008780034A804A905AA06AB07D007D006D005D02E
:10088800041200118F4B8E4A8D498C48054E020880
:100898000FAB3EAA3FA940854E82758300E412043F
:0108A800143B
:0108A900222C
:10059F00E4F540F53FF53EF53D7544CD7543CC751B
:1005AF0042CC75413D8B458A468947F548AB45AAF4
:1005BF0046A9471203E9FFD3648094B95008C3EFEB
:1005CF00648094B1501BEF6018642E6014EFB42D4B
:1005DF000375480174012547F547E43546F5468014
:1005EF00CCAB45AA46A9471203E9FFD3648094B95F
:1005FF00506CC3EF648094B04064AF40AE3FAD3EEB
:10060F00AC3DE4FBFA792078411201068F408E3F12
:10061F008D3E8C3DAB40AA3FA93EA83DC000C00116
:10062F00C002C003AB45AA46A9471203E9FF3395A1
:10063F00E0FEEF24D0FDEE34FFFCE412032FD003D5
:10064F00D002D001D0001200158F408E3F8D3E8C0E
:10065F003D74012547F547E43546F5468083AB45A4
:10066F00AA46A9471203E9642E600302070A048011
:10067F007EAB45AA46A9471203E9FFD3648094B91C
:10068F005079C3EF648094B04071AB40AA3FA93E4C
:10069F00A83DC000C001C002C003AB45AA46A94790
:1006AF001203E9FF3395E0FEEF24D0FDEE34FFFC9B
:1006BF00E412032FAB44AA43A942A841120106D06A
:1006CF0003D002D001D0001200158F408E3F8D3E17
:1006DF008C3DAF44AE43AD42AC417BCD7ACC79CCAF
:1006EF00783D1201068F448E438D428C4174012553
:1006FF0047F547E43546F546020680E5486013AFF7
:10070F0040AE3FAD3EAC3D1203198F408E3F8D3E44
:0A071F008C3DAF40AE3FAD3EAC3D57
:0107290022AD
:100F6B00C202C2A0D2A1D2A27F057E00120F33E52E
:080F7B0080339202C2A2A2021F
:010F8300224B
:100E79008F46120F6B40FBD2A0C2A1C2A27F057E92
:100E890000120F338546807F057E00120F33D2A2F0
:0A0E99007F057E00120F33C2A22273
:100EA3008F46120F6B40FBC2A0C2A1C2A27F057E78
:100EB30000120F338546807F057E00120F33D2A2C6
:0A0EC3007F057E00120F33C2A22249
:100F84007F38120EA37F0C120EA37F06120EA37FCE
:040F940001020EA3A5
:020F14008B440C
:100F1600EF70057545808006BF01117545C0ED254A
:0C0F260045F545FF120EA3AF44120E79F2
:010F3200229C
:060D89008B3E8A3F894009
:100D8F00E4F542EF7003754180BF01037541C0ED7B
:100D9F002541F541AF410541120EA30542AB3EAAD5
:100DAF003FA9401203E9FF6016E54264116010127B
:0F0DBF000E7974012540F540E4353FF53F80D5AE
:010DCE002202
:040DCF008F3D8D3E89
:100DD300EB14F543C3E54364809480402FAE40AFEA
:100DE300417C007D0A12049DED2430F542E53E2549
:100DF30043FDAB42AF3D120F14AE40AF417C007DCB
:0C0E03000A12049D8E408F41154380C8E8
:010E0F0022C0
:0C0FCA007F01120EA37F057E00020F3392
:080EDE00022300640221000060
:1008AA00AD07AC06EC12032F8F288E278D268C25D8
:1008BA00AB2CAA2BA92AA829120011AB34AA33A956
:1008CA0032A831120106C004C005C006C007AF280D
:1008DA00AE27AD26AC25AB38AA37A936A835120102
:1008EA0006D003D002D001D000120015C004C00502
:1008FA00C006C007E4FFFEFD7C40AB2CAA2BA92A48
:10090A00A829120106A804A905AA06AB07AF28AEB2
:10091A0027AD26AC25120011AB30AA2FA92EA82D7F
:10092A00120015AB3CAA3BA93AA839120106D0031A
:10093A00D002D001D0001200158F408E3F8D3E8C20
:10094A003D852C30852B2F852A2E85292D85282C0F
:10095A0085272B85262A852529AC23AD24EC12036D
:10096A002FAB40AA3FA93EA83D1202AC6008400640
:10097A00AC23AD248019AC21AD22EC12032FAB407D
:10098A00AA3FA93EA83D1202AC5010AC21AD22EC00
:10099A0012032F8F408E3F8D3E8C3DAF40AE3FAD50
:0609AA003EAC3D120368A3
:0109B0002224
:100E4700E4F528F527F526F525F530F52FF52EF5E8
:100E57002DF52CF52BF52AF529F534F533F532F573
:100E670031F538F537F536F535F53CF53BF53AF517
:020E770039221E
:020CC5008F3D61
:100CC700E4F53EF53FC2B3C2B2E53DC454F0F53D8D
:100CD700E4F540F54130A603433F01E53D3392A7D4
:100CE700D2B37F0A7E00120F33C2B37F0A7E00128F
:100CF7000F33E53D25E0F53DE53F25E0F53FE53ED2
:100D070033F53E0541E54170020540C3940CE540CB
:100D1700940040C1D2B2E53EC313F53EE53F13F55B
:040D27003FAE3EFF9E
:010D2B0022A5
:06000300722F6D696E0012
:0C0EE600015200015300C1010250000045
:100F9800758CFE758A0C758951D2A9D2AFD28CD2C4
:040FA800ABD28E2218
:100C5000120F847F1E7E00120F33120F98120E4760
:100C6000750E00750FC8D2A3D2A4C2A57BFF7A006F
:100C700079037D07E4FF120D897BFF7A0079037DFC
:100C8000077F01120D89E50924FD50077008120F36
:100C9000518003120D2C3001EDC201120FAC300057
:100CA00012C3E50F950BFFE50E950AFE1208AA8EFA
:100CB000508F51E50924FD500770CB120E1080C6ED
:050CC000120FBD80C110
:03000B00020B1FC6
:100B1F00C0E0C0F0C083C082C0D075D000C000C09C
:100B2F0001C002C003C004C005C006C007758CFE1B
:100B3F00758A0C0552E552C3946440437552000503
:100B4F0053E55394044038755300AF8DEFFEAD8BD2
:100B5F007C00E42DFFEC3EFE7D3C120436AC06AD6E
:100B6F0007E412032F7BB87A1E7925784112020F02
:100B7F001203688E0A8F0B758D00758B00D20130B2
:100B8F000016D3E5529551E5506480F87480984073
:100B9F00028001D392A38002C2A3D007D006D00552
:100BAF00D004D003D002D001D000D0D0D082D083D7
:050BBF00D0F0D0E0328F
:10000E000203D4E86480F8E933E83360110460F049
:10001E00ED33EC337009E8FCE9FDEAFEEBFF220458
:10002E0060DED3EB9FEA9EE99DE8C2E78CF0C2F753
:10003E0095F0400CE8CCF8E9CDF9EACEFAEBCFFB1F
:10004E0012039F85D0F05804700320D5B3E80470D6
:10005E00075002B2D50203DE92D5EC0460F7E4CC71
:10006E00C0E0C398F8603B94186008400DD0E0FBE8
:10007E000203B6E4FBFAC9FC8028E830E406E4C9C2
:10008E00FBE4CAFCE830E305E4C9CACBFCE854073C
:10009E006010F8C3E913F9EA13FAEB13FBEC13FC47
:1000AE00D8F130F52FC3E49CFCEF9BFFEE9AFEEDEA
:1000BE0099FDD0E0FBEF4E4D4C701222DB03020394
:1000CE00DBEC2CFCEF33FFEE33FEED33FDED30E7D2
:1000DE00EB0203B6EF2BFFEE3AFEED39FDD0E0FB5F
:1000EE0050130BBB00030203DEED13FDEE13FEEF08
:0800FE0013FFEC13FC0203B632
:10010600EC4D6011E8497017ED33EC3304600DE4F3
:10011600FCFFFEFD22E933E8330470F80203D41233
:10012600039F58046009E4CC248150062850090234
:1001360003DE2840030203DBC0E0EB4A7044B980CB
:1001460006D0E0FB0203CAEF4E701CBD8008EBFF31
:10015600EAFEE9FD80EBE98DF0A4FEE5F00201EF91
:10016600E9CDF9EAFEEBFFEF89F0A4FCE5F0CE89D4
:10017600F0A42EFFE435F0CD89F0A42DFEE435F091
:100186008067EF4E7005BD80D780C3EF8BF0A4ACBF
:10019600F0EE8BF0A42CFCE435F0F8EF8AF0A42CFA
:1001A600E5F038FCE433CB8DF0A42CFCE5F03BF80D
:1001B600EE8AF0A42CFCE5F038F8E433CF89F0A4FD
:1001C6002CFCE5F038CF3400CE89F0A42FFFE5F003
:1001D6003EFEE433C98DF0A42EFEE5F039CD8AF05B
:1001E600A42FFFE5F03EFEE43DFD33D0E0FB5007D3
:1001F6000BBB000F0203DEEC2CFCEF33FFEE33FEED
:06020600ED33FD0203B61A
:10020C000203DEEC5D046005E8590470030203D4BC
:10021C0012039F580460F6EC4860F2EC7004FDFE8B
:10022C00FF22C860DB2481C85009C39860025006C5
:10023C000203DB9850CAF582E9294B4A7005AB8260
:10024C000203CA75F0007C1A7880C3EF9BEE9AED1E
:10025C0099400DC3EF9BFFEE9AFEED99FDE842F03D
:10026C00DC23ACF0D0E0FFD0E0FED0E0FDAB822090
:10027C00E7101BEB60BAEC2CFCEF33FFEE33FEED1A
:10028C0033FD0203B6E803F830E705C0F075F00063
:10029C00EF2FFFEE33FEED33FD40B830E7C280AAFE
:1002AC0074F8CC6480CCC86480C8F582046043C305
:1002BC00EB9FF5F0EA9E42F0E99D42F0E89C45F098
:1002CC0060305018E5825FFFE582F42B5582FB50BD
:1002DC00210ABA001D09B90019088016E5825BFBDA
:1002EC00E582F42F5582FF50090EBE00050DBD00AE
:1002FC00010CC3EB9FF5F0EA9E42F0E99D42F0E859
:0D030C009C45F06007CC4820E701B3EC22CF
:10031900ED33EC33600A047003BD8004ECB2E7FCF2
:0103290022B1
:10032A0075F020800E75F010800575F0087D007E4E
:10033A00007F003392D530D5031204D3EC3340103A
:10034A00EF33FFEE33FEED33FDEC33FCD5F0ED2257
:0E035A00E5F0247EA2D513CC92E7CDCEFF2293
:10036800EDD2E7CD33EC3392D524814006E4FFFE8D
:10037800FDFC22FCE4CFCECDCC24E0501174FF80EC
:10038800EDC3CC13CCCD13CDCE13CECF13CF047089
:07039800F030D5DE0204D3B2
:10039F00E9D2E7C933E833F892D5EDD2E7CD33ECA4
:0703AF0033FC5002B2D5221D
:1003B600EC30E7100FBF000C0EBE00080DBD0004A8
:1003C6000BEB6014A2D5EB13FCED92E7FD2274FF54
:1003D600FCFDFEFF22E480F8A2D574FF13FC7D80AD
:0303E600E480EFC1
:100BD000020C50E493A3F8E493A34003F68001F2DF
:100BE00008DFF48029E493A3F85407240CC8C33326
:100BF000C4540F4420C8834004F456800146F6DFF5
:100C0000E4800B0102040810204080900ECDE47EA9
:100C1000019360BCA3FF543F30E509541FFEE493E9
:100C2000A360010ECF54C025E060A840B8E493A3B0
:100C3000FAE493A3F8E493A3C8C582C8CAC583CADB
:100C4000F0A3C8C582C8CAC583CADFE9DEE780BE93
:010EF20000FF
:1003E900BB010689828A83E0225002E722BBFE0212
:0903F900E32289828A83E4932245
:10040200BB010689828A83F0225002F722BBFE01D9
:02041200F322D3
:10041400F8BB010DE58229F582E5833AF583E8F01E
:10042400225006E92582C8F622BBFE05E92582C8CA
:02043400F222B2
:10043600EF8DF0A4A8F0CF8CF0A428CE8DF0A42EDA
:02044600FE2294
:10044800BC000BBE0029EF8DF084FFADF022E4CC98
:10045800F875F008EF2FFFEE33FEEC33FCEE9DEC61
:10046800984005FCEE9DFE0FD5F0E9E4CEFD22EDA7
:10047800F8F5F0EE8420D21CFEADF075F008EF2FF1
:10048800FFED33FD4007985006D5F0F222C398FDE2
:050498000FD5F0EA227F
:10049D00C2D5EC30E709B2D5E4C39DFDE49CFCEE7A
:1004AD0030E715B2D5E4C39FFFE49EFE120448C3A6
:1004BD00E49DFDE49CFC800312044830D507C3E4A1
:0604CD009FFFE49EFE22E9
:0E04D300C3E49FFFE49EFEE49DFDE49CFC223A
:1004E100BB010789828A830205535005E9F8020599
:1004F10047BBFE05E9F802055F89828A8302056B25
:10050100BB010789828A830205875005E9F8020544
:0A0511007BBBFE05E9F8020593220A
:10051B00EF4E6012EF60010EEDBB010B89828A83F7
:10052B00F0A3DFFCDEFA2289F05007F709DFFCA904
:0C053B00F022BBFEFCF309DFFCA9F0225B
:0C054700E6FC08E6FD08E6FE08E6FF22E0
:0C055300E0FCA3E0FDA3E0FEA3E0FF221B
:0C055F00E2FC08E2FD08E2FE08E2FF22D8
:10056B00E493FC740193FD740293FE740393FF22D6
:0C057B00ECF608EDF608EEF608EFF622AC
:0C058700ECF0A3EDF0A3EEF0A3EFF022E7
:0C059300ECF208EDF208EEF208EFF222A4
:00000001FF
